:020000040800F2
:10000000000002201533000865330008653300083E
:100010006533000865330008653300080000000000
:10002000000000000000000000000000211D00088A
:100030006533000800000000B117000881170008B0
:100040006533000865330008653300086533000830
:100050006533000865330008653300086533000820
:100060006533000865330008653300086533000810
:100070006533000865330008653300086533000800
:1000800015260008092600086533000865330008B6
:1000900065330008653300086533000865330008E0
:1000A00065330008653300086533000865330008D0
:1000B00065330008653300086533000865330008C0
:1000C00065330008653300086533000865330008B0
:1000D0006533000865330008C12300086533000854
:1000E0006533000865330008653300086533000890
:1000F0006533000865330008653300086533000880
:10010000653300086533000865330008653300086F
:10011000653300086533000865330008653300085F
:10012000B52300086533000865330008653300080F
:10013000653300086533000865330008653300083F
:10014000653300086533000865330008653300082F
:10015000653300086533000865330008653300081F
:10016000653300086533000865330008653300080F
:10017000653300086533000865330008000000009F
:08018000653300086533000837
:10019000F8B500BFF8BC08BC9E467047F8B500BF74
:1001A000F8BC08BC9E46704700000020700000208C
:1001B000540000201C00002038000020E901000845
:1001C000C501000810B5054C237833B9044B13B1B1
:1001D0000448AFF300800123237010BD5C010020B0
:1001E00000000000E43D00080C4B43B10C480D49F1
:1001F00010B5AFF300800C48036823B910BD0A485E
:10020000036833B97047094B002BF7D0BDE81040A5
:100210001847064B002BF5D0184700BF0000000020
:10022000E43D0008600100205C01002000000000A7
:10023000154B002B08BF134B9D46A3F5803A0021B8
:100240008B460F461348144A121A03F0CBF80F4B93
:10025000002B00D098470E4B002B00D09847002071
:10026000002104000D000D48002802D00C48AFF317
:10027000008003F093F82000290001F0E5FA03F074
:1002800079F800BF00000800000002200000000014
:10029000000000005C010020B024002000000000ED
:1002A00000000000704770472DE9F04F85B00B68E3
:1002B000DFF8AC81684ADFF8AC91019300234FF07E
:1002C000010E019C0EFA03FE0EEA0406B64540F04C
:1002D000AE804C6824F01007022F16D14FEAD30AE3
:1002E00000EB8A0A03F0070BDAF820504FEA8B0B79
:1002F0004FF00F0C0CFA0BFC25EA0C0C0D6905FAFB
:100300000BF545EA0C05CAF820504FEA430A0325CD
:10031000D0F800B005FA0AF5ED4304F0030C0BEA3F
:10032000050B0CFA0AFC013F4CEA0B0C012FC0F83C
:1003300000C011D8876807EA050BCF6807FA0AFCE6
:100340004CEA0B078760476827EA0E0EC4F30017D4
:100350009F4047EA0E074760C7683D408F6807FA2D
:100360000AF73D43C560E50061D54FF0000BCDF8BD
:100370000CB0D8F84470394D47F48047C8F8447041
:10038000D8F8447007F480470397039F23F00307CE
:1003900007F1804707F59C3703F0030CD7F808A056
:1003A0004FEA8C0C4FF00F0E0EFA0CFEA8422AEA10
:1003B0000E0E43D005F58065A84241D005F5806555
:1003C000A8423FD005F58065A8423DD005F580657F
:1003D000A8423BD048453BD005F50065A84239D03E
:1003E00005F58065A84214BF0825072505FA0CF518
:1003F00045EA0E05BD601568F74314F4803F0CBF55
:100400003D4035431560556814F4003F0CBF3D4036
:1004100035435560956814F4801F0CBF3D4035434B
:100420009560D568A40254BF3D403543D560013383
:10043000102B7FF444AF05B0BDE8F08F5D46D5E7E3
:100440000125D3E70225D1E70325CFE70425CDE732
:100450000525CBE70625C9E7003C01400000024026
:100460000038024000140240836B0022DA85DA84EF
:1004700000F0CEBD836B1A68516993F839002128CA
:100480000AD1080608D50021D984D16821F0C0011D
:10049000D160202183F83910516993F83A0022285D
:1004A0000ED149060CD50021D985D16821F490716F
:1004B000D160516921F001015161202283F83A2075
:1004C000DA6B42F01002DA6300F0A2BD03681B6829
:1004D00013F4807311D1826BD3851368D96821F42A
:1004E0008071D960596921F001015961596921F080
:1004F00040015961202382F83A3000F083BD03683F
:100500001B6813F480730BD1826BD38413685A6910
:1005100022F080025A61DA6842F04002DA607047E5
:1005200000F070BD084B4FF460429B6892FAA2F253
:10053000B2FA82F203F46043D340044AD35C044A23
:100540001068D840704700BF00380240F03D0008F6
:100550008C000020084B4FF4E0529B6892FAA2F204
:10056000B2FA82F203F4E053D340044AD35C044A63
:100570001068D840704700BF00380240F03D0008C6
:100580008C0000200F49D1F8883043F47003C1F883
:1005900088300D4B1A68002042F001021A60986002
:1005A0001A6822F0847222F480321A60074A5A6074
:1005B0001A6822F480221A60D8604FF000638B60C2
:1005C000704700BF00ED00E000380240103000240A
:1005D0000368DAB223F47F7323F003031821103A7F
:1005E000B2FBF1F20449032A88BF0433895C8365B6
:1005F000C165806D704700BFF83D0008F7B5002366
:1006000001935A4B856D1F68C36D2E6808229A406E
:10061000164204460CD001680868400708D50868EF
:1006200020F004000860AA60626D42F00102626579
:100630004F4A9A40164208D021684969090641BFCD
:10064000AA60626D42F0020262654A4A9A4016420E
:1006500008D021680968880741BFAA60626D42F02E
:100660000402626510229A40164210D0236819686D
:1006700009070CD5AA601A68500335D51B68190301
:1006800001D4236C00E0A36C0BB120469847E16DC8
:1006900020228A40164238D023681868C60634D50E
:1006A000AA6094F83520052A1A6825D122F016028E
:1006B0001A605A6922F080025A61226C0AB9A26C4F
:1006C0001AB11A6822F008021A603F238B40AB600F
:1006D000002384F83430012384F83530236D0BB1C6
:1006E0002046984703B0F0BD1A68D2055EBF1A686D
:1006F00022F008021A60C4E7500328D51B681903CA
:1007000032D4636C0BB120469847636D002BE9D05F
:10071000636DDA0719D50523226884F8353013682C
:1007200023F0010313604FF41653B7FBF3F7019B5B
:1007300001339F42019302D31368DB07F7D40023F0
:1007400084F83430012384F83530E36CC7E71A6845
:1007500012F4807208D1196821F010011960012388
:1007600084F8342084F83530E36BCBE78C0000202C
:10077000010080000400800070B590F83440012C26
:1007800036D0012480F8344090F83540866D012C35
:100790004FF000054FF0020428D180F8354004687E
:1007A0004565256825F48025256063608368402BB6
:1007B0000EBFA260A160E260C26D08BFE1603F238E
:1007C0009340B360236843F016032360636943F0EA
:1007D00080036361036C1BB1236843F0080323604B
:1007E000236843F001032360002070BD80F834507B
:1007F000022070BD38B50546F0B190F83540E4B23E
:10080000022C17D003681A6822F001021A60002433
:1008100021221C605C609C60DC601C615A61FFF7F7
:10082000D7FEEA6D3F23934083606C6585F83440C2
:1008300085F83540204638BD012038BD174B30B50E
:10084000DC68C4F30224C4F10703251D042B28BF70
:100850000423062D4FF0010505FA03F303F1FF33DE
:100860008CBF033C00241940A14005FA04F4013C6C
:100870002240002842EA01024FEA0212AFBF00F113
:10088000604000F00F00064BD2B2A5BF00F56140FA
:10089000D2B21A5480F8002330BD00BF00ED00E052
:1008A00014ED00E02DE9F04FA94CAA49002384F88B
:1008B000393084F83A304FF4E132A360E3602361C9
:1008C000A361E36194F8393084E806000C228DB00E
:1008D000626103F0FF05002B40F099809E4B069566
:1008E00084F838501A6B9D4842F001021A631A6B63
:1008F00002F001020692069A05951A6B42F0010277
:100900001A631A6B02F001020592059A04951A6C9B
:1009100042F400321A641A6C02F400320492049A0F
:1009200003951A6B42F400121A631B6B099503F4CA
:1009300000130393039B04230726079307A90223AD
:1009400008930A930B96FFF7AFFC07A908230B96B1
:100950008248834E0793FFF7A7FC824B33604FF426
:1009600080684FF0006340274FF0030B4FF4000AFC
:100970004FF4001930467360C6F810800193B760D9
:10098000F5607561B561F56135627562C6F828B0CC
:10099000C6F82CA0C6F8309000F012FA2663B463B3
:1009A000714E019B714AC6F8108030464FF40038F2
:1009B00073603260B560F5607561B561F561C6F868
:1009C00020807562C6F828B0C6F82CA0C6F8309012
:1009D00000F0F6F96663B463654E012229461120E2
:1009E000FFF72CFF2A4629461020C6F80080FFF7A3
:1009F00025FF4FF4803333602A4629462620FFF72F
:100A00001DFF2268D36843F01003D3607760256828
:100A1000E268E169242384F83930EB6823F4005359
:100A2000EB602B69206923F4405313432B61A368C7
:100A3000EA680343606922F41642034322F00C0281
:100A40000B431343EB606B69A26923F440731343B8
:100A5000B1F5004F6B61474B40F0C1809D4204D01F
:100A600003F580639D4240F08980FFF75BFD676876
:100A7000192101FB00F34FF064087F00B3FBF7F38B
:100A8000B3FBF8F31F01FFF74DFD636848435B00BC
:100A9000B0FBF3F6FFF746FD636848435B00B0FB2D
:100AA000F3F3B3FBF8F308FB1363DB003233B3FB60
:100AB000F8F35B0003F4F876FFF734FD626848430F
:100AC0005200B0FBF2F9FFF72DFD636848435B006D
:100AD000B0FBF3F3B3FBF8F308FB1393DB00323303
:100AE000B3FBF8F303F007033B443344AB602368E4
:100AF0001A6922F490421A615A6922F02A025A6154
:100B0000DA6842F40052DA6000232022E36384F8BA
:100B1000392084F83A2002930F4B174C1A6B42F09D
:100B200020021A631B6B03F020030293029B4023F5
:100B3000079301230893099307A9022320460A93E8
:100B4000FFF7B2FB4FF48003A3610DB0BDE8F08F57
:100B500048150020004400400038024000000240D8
:100B6000081F0020A0600240A81E002088600240EC
:100B700000E100E00010014000140240FFF7EAFC31
:100B80006768192101FB00F34FF064087F00B3FB95
:100B9000F7F3B3FBF8F31F01FFF7DCFC636848438E
:100BA0005B00B0FBF3F6FFF7D5FC636848435B00DE
:100BB000B0FBF3F3B3FBF8F308FB1363DB00323352
:100BC000B3FBF8F35B0003F4F876FFF7C3FC62684D
:100BD00048435200B0FBF2F9FFF7BCFC75E79D42B9
:100BE00002D0394B9D423FD1FFF79CFC666819212A
:100BF00001FB00F34FF06408B600B3FBF6F3B3FB60
:100C0000F8F31E01FFF78EFC636848439B00B0FBBE
:100C1000F3F7FFF787FC636848439B00B0FBF3F3EF
:100C2000B3FBF8F308FB13731B013233B3FBF8F388
:100C300003F0F007FFF776FC626848439200B0FBD0
:100C4000F2F9FFF76FFC636848439B00B0FBF3F3D6
:100C5000B3FBF8F308FB13931B013233B3FBF8F338
:100C600003F00F033B4340E7FFF774FC666819216C
:100C700001FB00F34FF06408B600B3FBF6F3B3FBDF
:100C8000F8F31E01FFF766FC636848439B00B0FB66
:100C9000F3F7FFF75FFC636848439B00B0FBF3F397
:100CA000B3FBF8F308FB13731B013233B3FBF8F308
:100CB00003F0F007FFF74EFC626848439200B0FB78
:100CC000F2F9FFF747FCBEE700140140026CF8B5EB
:100CD0000446866B002A3ED103680BB1002004E075
:100CE00045682DB90020002363600136A663F8BD76
:100CF000EB6CE96AAA6C013B9142EB64F2D0002BE9
:100D0000F0D12F1D384601F02BFDDFF868E0184ABE
:100D100070B9D5F82CC0142000FB0CF05EF8003040
:100D200033B91368012101FA0CF123EA01031360BE
:100D3000AB6CEB62C3F10501A9611168012505FAED
:100D400003F008431060142000FB03E0394601F073
:100D50002EFD2846C7E7806802F04CFCA368226C91
:100D600013446268A360934224BF2368A360B5E77D
:100D7000101600209815002008B50E4B4FF47A721B
:100D80001B68B3FBF2F3013BB3F1807F09D20A4A3F
:100D900053600A4BF02183F823100023936007234C
:100DA000136000220F214FF0FF30FFF747FD0020B6
:100DB00008BD00BF8C00002010E000E000ED00E066
:100DC0003C4B70B51D680446002870D0002280F8A6
:100DD00034200168022280F835200A6822F00102DE
:100DE0000A600A68D0073CD40B68334D6268A0697A
:100DF0001D40A3681343E2681343226913436269E9
:100E00001343E26903431343226A1343626A042AC9
:100E100043EA050301BF266BE56A35432B430B60AC
:100E20004B69042A23F0070343EA02030BD1A26AA9
:100E3000E56A13433DB1F0B9012A2DD001D3022A4E
:100E400001D1EA012BD44B612046FFF7C1FBE26DD3
:100E50003F239340836000200123606584F8353090
:100E600070BD1A68521B052ABBD920236365032075
:100E700084F8350070BDB0F5005F14D1032AE2D8C4
:100E800001A050F822F000BF9F0E0008430E00089A
:100E90009F0E0008990E0008B5F1C07FD3D1402302
:100EA00063650120E4E7022AF9D9032AC8E7012093
:100EB00070BD00BF001600203F8010F02DE9F04308
:100EC0002A4D2B4E00244FF0010E4FF0030C0F273C
:100ED0000EFA04F333EA000243D1620029680CFAE7
:100EE00002F2D24311402960E108890001F18041FA
:100EF00001F5003104F00708D1F820904FEA880886
:100F000007FA08F829EA0808C1F82080A968114002
:100F1000A9606968DB4319406960E9680A40EA60D2
:100F200024F0030202F1804202F59C3204F0030136
:100F3000D2F80880890007FA01F118EA010F10D1F0
:100F4000D2F8088028EA0101916032681A403260C4
:100F500072681A407260B2681A40B260F268134058
:100F6000F3600134102CB3D1BDE8F08300000240DF
:100F7000003C0140F8B50446EFF311864FF0400302
:100F800083F31188BFF36F8FBFF34F8F022390F865
:100F9000545080F85430036DEDB20133012D0365D8
:100FA0001CD1124B1B68E3B9071D384601F0D8FB72
:100FB0000F4AE36A11689D400D4315600D4A1420E5
:100FC000394600FB032001F0F2FB0B4BE26A1B6881
:100FD000DB6A9A4282BF094B01221A6086F31188AC
:100FE000F8BD00F118010648EDE700BF0816002023
:100FF00010160020981500208C1500207016002077
:1010000040160020014B1868FFF7B4BF8815002078
:10101000034B00221A80034B1868FFF7ABBF00BFD9
:10102000FC1500208815002010B5214B93F83A20BC
:10103000222A3AD19A68B2F5805F24D119699A6A56
:10104000D9B919684968C1F3080122F8021B9A62EC
:10105000DC8D013CA4B2DC856CB91A68D16821F43E
:101060009071D160516921F001015161202283F812
:101070003A20FFF7C7FF002010BD19684968C9B2C0
:1010800022F8011BE3E71A6932B99A6A511C996286
:10109000196849681170DBE7996A4A1C9A621A68F4
:1010A000526802F07F020A70D2E7022010BD00BF32
:1010B0004815002038B5144C00F0B6FB23681B6DB2
:1010C0007BB92368012183F854104FF0FF3001F001
:1010D0007BFB0E4B4FF080521A60BFF34F8FBFF374
:1010E0006F8F00F097FB00F09FFB23681D6D15B11B
:1010F000236800221A652368002283F8542000F038
:1011000089FB284638BD00BF8C15002004ED00E0A7
:101110000EB4114B17B511495B1A9B1000229A426D
:1011200002DB4FF0FF300FE051F822000468032C7F
:101130000FD18369002BF4D006AB019351F8223014
:1011400006999B690020984703B0BDE8104003B0A2
:1011500070470132E3E700BFB4010008A8010008AE
:10116000F8B506460D4601F0F3FA346835EA040393
:1011700026D124EA05033360002701F07DFCEFB19E
:1011800038B91B4B4FF080521A60BFF34F8FBFF33B
:101190006F8F184B1A6894691A681B68DB6AC3F171
:1011A00005039361A30107D400F03EFB346835EAE0
:1011B000040318D000F02EFB24F07F442046F8BD35
:1011C0000C4B1A6845F0054191611968301D1831C2
:1011D00001F0EDFA01214FF0FF3001F0F5FA0024A3
:1011E0004FF0FF37C9E724EA05053560E2E700BFA5
:1011F00004ED00E08C15002073B5856C0190AA6B9E
:10120000EB6B9A421AD295F8454001A92846FFF7A0
:101210005DFD64B2631C06460BD16B6A33B105F108
:10122000240001F017FB002818BF0126304602B049
:1012300070BD013464B285F84540F7E70026F5E754
:1012400010B5044600F0F0FA216CE36B2268A2604E
:101250004B43D0185B1A13446060E3600020FF2307
:10126000A06384F8443004F1100084F8453001F0A4
:1012700075FD04F1240001F071FD00F0CBFA0120AE
:1012800010BD00002DE9FF47DFF81481DFF814914D
:10129000DFF804A1019204460F46002600F0C4FACC
:1012A000A26BE36B9A421FD239462046FFF70EFD30
:1012B000A36C8BB12046FFF79FFF38B1364B4FF040
:1012C00080521A60BFF34F8FBFF36F8F00F0A2FA06
:1012D000012004B0BDE8F087636A002BEDD004F173
:1012E000240001F0B7FAE8E7019D1DB900F092FA79
:1012F0000020EEE72EB9D8F800300293D9F800307C
:10130000039300F087FA01F023FA00F08DFA94F8C5
:101310004430FF2B04BF002384F8443094F8453058
:10132000FF2B04BF002384F8453000F073FA01A9B5
:1013300002A801F0B7F948BB00F076FAA66BE56B9E
:1013400000F068FAAE421BD1144B019D196804F1FC
:101350001000183101F014FA0121284601F034FA86
:10136000204601F0AFFA01F087FB38B94FF0805307
:10137000CAF80030BFF34F8FBFF36F8F01268DE7A0
:10138000204601F09FFA01F077FBF7E7204601F0D5
:1013900099FA01F071FBABE704ED00E08C15002039
:1013A0003C1600206C1600202DE9F04F85B0DFF8C8
:1013B000C4916E4F019204468846002600F034FA2C
:1013C000A56B002D2FD0226C5AB1E36861681344DD
:1013D0008B42E36024BF2368E360E168404602F08B
:1013E00009F92368013DA56343B9614B1A681AB135
:1013F0001968CA6C0132CA641B686360236963B1EF
:1014000004F1100001F026FA38B15A4B4FF0805227
:101410001A60BFF34F8FBFF36F8F00F0FBF901200D
:1014200005B0BDE8F08F019D1DB900F0F3F9284625
:10143000F6E72EB9504B1B680293504B1B68039381
:1014400000F0E8F901F084F900F0EEF994F8443086
:10145000FF2B04BF002384F8443094F84530FF2B61
:1014600004BF002384F8453000F0D4F901A902A894
:1014700001F018F9002867D100F0D6F9A56B00F04B
:10148000C9F9002D5AD12368394E002B3BD100F009
:10149000CBF96568002D34D03268EB6AD26A93428A
:1014A0002FD2AA69002AA1BF3268D26AC2F105020E
:1014B000AA614FF0140B6A690BFB03739A4250D177
:1014C00005F1040A504601F04BF92D4A58B9E86A73
:1014D0000BFB00FB57F80B302BB91368012181403F
:1014E00023EA0103136033681168D86AE8620123B4
:1014F00083400B4313601423514603FB007001F03B
:1015000056F900F087F93168019D183104F1240083
:1015100001F036F90121284601F056F9204601F084
:10152000D1F901F0A9FA38B94FF08053C9F8003069
:10153000BFF34F8FBFF36F8F01263FE7204601F0C7
:10154000C1F901F099FAF7E7204601F0BBF901F083
:1015500093FA00F069F9A56B00F05CF9002DEBD16E
:1015600065E73368DB6AEB62CBE700BF98150020C4
:101570008C15002004ED00E03C1600206C160020C5
:10158000101600202DE9F041079C074688461D46AD
:101590000698002C00F09C80002800F0A680022312
:1015A00002FA03F6324684F85530A521206301F093
:1015B00019FF226B043E324408F1FF3322F0070288
:1015C00004F1340108F10908587801F8010B13F807
:1015D000010F08B14345F7D1042D28BF0425C5F1FB
:1015E00005030021A3614FF08073E562A5642165C6
:1015F00084F83D10E1646161A1622461646284F851
:10160000541042F8043C3A4B42F80C3C27F00107D6
:101610006FF0020342F8243C42F8087C42F8201C98
:10162000443A226000F000F9324B334E1A68334DD1
:1016300001321A603268002A4DD134601B68012BD8
:1016400022D12F48DFF8EC802E4F01F087FB2E4887
:1016500001F084FB2D4801F081FB2D4801F07EFB59
:101660002C4801F07BFB404601F078FB384601F046
:1016700075FB294801F072FB284801F06FFB284BED
:10168000C3F80080274B1F60274A28491368086861
:1016900001331360E26A23640123934003430B6028
:1016A000174B142000FB0230211D01F080F800F0E0
:1016B000B1F82B6863B13368DA6AE36A9A4207D2F9
:1016C0001B4B4FF080521A60BFF34F8FBFF36F8FE9
:1016D0002046BDE8F0812B68002BD5D13368DA6A4B
:1016E000E36A9A4298BF3460CEE70446F0E700BF51
:1016F0006D170008041600208C15002054160020D9
:101700009815002028160020AC150020C0150020D8
:10171000D4150020E815002040160020581600209F
:1017200090150020941500200C16002010160020A3
:1017300004ED00E014160020DFF80C00016841F40D
:10174000700101607047000088ED00E00648006805
:10175000006880F3088862B661B6BFF34F8FBFF3AD
:101760006F8F00DF00BF000008ED00E04FF0400386
:1017700083F31188BFF36F8FBFF34F8FFEE7000035
:1017800008B54FF0400383F31188BFF36F8FBFF3A9
:101790004F8F01F0DDF818B1034B4FF080521A6003
:1017A000002383F3118808BD04ED00E00000000071
:1017B000EFF30980BFF36F8F154B1A681EF0100FFF
:1017C00008BF20ED108A20E9F04F10604DF8043D6D
:1017D0004FF0400080F31188BFF34F8FBFF36F8F3E
:1017E00000F088FF4FF0000080F3118808BC1968F2
:1017F0000868B0E8F04F1EF0100F08BFB0EC108A78
:1018000080F30988BFF36F8F704700BFAFF300808C
:101810008C150020034A1368013B13600BB983F356
:1018200011887047900000204FF0400383F3118827
:10183000BFF36F8FBFF34F8F024A136801331360FA
:10184000704700BF900000208FB5A54AA54C936853
:1018500003F00C03042B00F08380082B00F082803F
:10186000A14B9F4D2360AB68A04EA149C3F3031366
:10187000F25C2368D34023609E4B1A6842F40072E6
:101880001A601A6842F480621A601A6842F4807220
:101890001A60CA68984B22F4E0621204120C1343D7
:1018A000CB60FFF769FA002203922B6C43F0805360
:1018B0002B642B6C03F080530393039B8F4B02929A
:1018C0001A6842F480421A601B6803F48043029352
:1018D000029BAB6803F00C03042B314607D0AB68C6
:1018E00003F00C03082B54D16B685D0251D57C4B7F
:1018F0001B687B48836803F00C03082B57D0804F8C
:10190000804A00233B60156803689B0100F18F80CB
:1019100047F6C07393FAA3F3B3FA83F64FF4403358
:1019200093FAA3F34FF0706595FAA5F54FF4A873F9
:10193000B340B5FA85F5072606FA05F52B4343F4BF
:10194000800343F00803436001233B60156864484B
:1019500003689E012BD413685B1B022BF8D926E089
:10196000694B7EE75068516852684602C2F388129C
:1019700001F03F014CBF644B5B4BB3FBF1F35343AE
:10198000574A5268C2F3014201325200B3FBF2F3EC
:1019900067E7534B1A6842F480321A60594A156857
:1019A00018688003A5D41068401B6428F8D9514BEF
:1019B0001A6802F00F02042A3FD9494B9A6822F0B4
:1019C000F0029A601A6892013FD4504B504F1A6847
:1019D000504D41F20103B3EB124F04BF454A136867
:1019E000A5EB070504BF43F480731360AD10002618
:1019F000AE42C0F2C880484B484EF61AB6100027D7
:101A00009846B742C0F2C6800C224549012001F039
:101A1000FBFC444B0193444B009382220023434937
:101A20004348FFF7AFFD002840F0CB80FEE7136886
:101A30005B1B022B7FF668AFB9E705221A701B68A3
:101A400003F00F039342C0D1B7E79A682D4822F004
:101A5000030242F002029A6006681A4641F2883791
:101A60009D6805F00C05082D1AD1224B186800F06E
:101A70000F0005282AD8936823F4E05343F4A053B9
:101A80009360936823F4604343F400439360936846
:101A900003F00C03042B08D0082B4DD0124B05E0AB
:101AA0000568AD1BBD42DBD98FE7224B0C4AF02005
:101AB000926890FAA0F0B0FA80F002F0F002C24012
:101AC0008A5CD3402360FFF757F97EE70520187042
:101AD0001B6803F00F0383427FF477AFCBE700BFAF
:101AE000003802408C0000200024F4000D3E000865
:101AF00000ED00E0003C02400003FA0500700040E9
:101B0000600047420016002040787D01002004E07C
:101B1000A8010008B4010008B4010008BC010008D5
:101B20001D3E00080C1D0020CC1600202A3E000897
:101B30002126000800127A0055685368526805F0A3
:101B40003F0513F4800F47F6C07090FAA0F3B3FA84
:101B500083F302EA000222FA03F214BF554B564BFC
:101B6000B3FBF5F35343554A4FF44030526890FAB3
:101B7000A0F0B0FA80F002F44032C24001325200CC
:101B8000B3FBF2F392E757F826305B6803B198474E
:101B900001362DE758F827506DB16B6803B19847AF
:101BA000286840B16B690193AB69009305F10801A6
:101BB0000EC9FFF7E7FC013723E70133082B27D1D4
:101BC00030E0DFF81C81FFF72FFED8F800604EBB35
:101BD0003B4F3C4D384601F0C1F8284601F0BEF8B5
:101BE000394B1F60394B1D60394D012385F8463054
:101BF000384B2B600523EB6310232B642846FFF73B
:101C00001FFB354A85F85060AE64C8F80050334673
:101C100052F83300D9000028CFD1304842F83300C1
:101C20000A445560FFF7F6FD2D4B1B68002B3FF46F
:101C3000FDAE2C4B01932C4B00934FF48272042386
:101C40002A492B48FFF79EFC00283FF4EFAE4FF0E7
:101C5000400383F31188BFF36F8FBFF34F8F254B82
:101C60004FF0FF321A60244B01221A60234B0021EF
:101C70001960234B1A6842F470021A601A6842F025
:101C800070421A6023684FF47A72B3FBF2F31D4A74
:101C9000013B13601C4B07221A601C4B1960FFF7B5
:101CA0004BFD1B4A136843F040431360FFF74EFDA2
:101CB000FFF75CFD00127A000024F40000380240B7
:101CC000E41C0020F81C0020741600207816002068
:101CD000A81D00207C160020681D00202F3E000853
:101CE000A0240020FC1D0020D4180020343E000851
:101CF000512B0008641D0020541600206C16002093
:101D000020ED00E014E000E010E000E09000002092
:101D100034EF00E0000000000000000000000000C0
:101D2000074B19680868B0E8F04F80F30988BFF3E3
:101D30006F8F4FF0000080F311887047AFF3008081
:101D40008C150020F8B5134D2B681A6822B9124A79
:101D5000116829601360F8BDDB68DC681E68271D08
:101D6000384600F0FDFC636A20469847E369012B82
:101D7000EAD1A36933449E4206D2636024613946A6
:101D8000286800F0FDFCDFE73146204601F0F8F955
:101D9000DAE700BF7416002078160020914208B5DB
:101DA000416000610AD8D21A83699A420DD2084B69
:101DB000011D186800F0E4FC002008BD9A4201D221
:101DC000994202D2011D034BF3E7012008BD00BF79
:101DD00078160020741600204FF0FF3070474FF047
:101DE000FF3070474FF0FF3070474FF0FF307047C3
:101DF00010B500234FF060428B4201DB084610BD56
:101E0000D2F8804EE40703D5D2F8004EE40702D49E
:101E10000133F1E700BF1468002CFBD0C45C1470E0
:101E2000F6E74FF06043D3F8802E22F00102C3F8AA
:101E3000802ED3F8002E22F00102C3F8002E704746
:101E40001549164B4FF47A421B68B3FBF2F34A680C
:101E500042F020024A60124A4FF08071D160114A6C
:101E6000013B0221C2F8F01013614FF060430E49AC
:101E7000C3F8B01F0D49C3F8801E0F21C3F8401EE0
:101E80000121C3F8001E03F58053094919604FF47E
:101E90008073C2F804337047002004E08C000020F7
:101EA000F0ED00E0000004E055CEACC515007F0069
:101EB000FE0300402DE9F04180460E4619B94FF06F
:101EC000FF30BDE8F081174B1868174B18600028E9
:101ED000F5D0164D164C8BB22B8000F0B9FB94F860
:101EE0004830012BEBD0E06C022384F84930012705
:101EF000104B84F84870C3630F4BC36442463346AB
:101F00000021FEF739FC002384F8483084F849703A
:101F1000FFF7D0F82B889BB2002BD0D0288880B256
:101F2000BDE8F0818C150020A41E0020C81F0020F1
:101F3000541E00205D210008692100082DE9F041B0
:101F400007460E4619B94FF0FF30BDE8F0811A4B35
:101F500018681A4B18600028F5D0194D194C00F07C
:101F600077FBB3B22B8094F84930042BEBD094F874
:101F70004830012BE7D0E06C022384F849304FF061
:101F80000108114B84F84880C363104BC3640022DE
:101F900033463946FEF7F0FB002384F8483084F8D6
:101FA0004980FFF787F82B889BB2002BCBD028887D
:101FB00080B2BDE8F08100BF8C150020A41E002077
:101FC000C81F0020541E00205D2100086921000860
:101FD0002DE9F3410746884621B94FF0FF3002B0A2
:101FE000BDE8F081274B1868274B18600028F4D013
:101FF000264E274C8DB2358000F02AFB94F83A30FB
:10200000202BEAD1002FE8D0002DE6D094F838300C
:10201000012BE2D00123606B84F83830A5852223A0
:102020000025E56384F83A301A4BC36321681A4BE4
:1020300003641A4BC3643A461FFA88F304310565FA
:10204000A762FEF799FB236801951A6801925A6806
:10205000019284F83850019ADA6842F48072DA60AA
:102060005A6942F001025A615A6942F040025A61CB
:10207000FFF720F833889BB2002BAED0308880B2B7
:10208000ADE700BF8C15002088150020FC1500204E
:1020900048150020CD040008A702000875040008B8
:1020A0002DE9F0410746884619B94FF0FF30BDE8E9
:1020B000F081234B1868234B18600028F5D0224D7F
:1020C000224C00F0C5FA1FFA88F22A8094F83930C1
:1020D000202BEAD1002FE8D0002AE6D094F838303F
:1020E000012BE2D00123206B84F838300026212315
:1020F000E284E66384F83930154BA284C363226816
:10210000144B0364144BC36404321FFA88F339463A
:1021100006652762FEF730FB23686FF040021A6005
:1021200084F838605A6942F080025A61FEF7C2FFB3
:102130002B889BB2002BB8D0288880B2BDE8F081F4
:102140008C15002088150020FC1500204815002063
:10215000FF040008A502000875040008014B186878
:10216000FEF708BFA41E0020034B00221A80034B79
:102170001868FEF7FFBE00BFC81F0020A41E002085
:1021800038B51448FEF736FB134B4FF08072C3F896
:102190008420124B93E812009A6851F8220020F034
:1021A000010001EB820541F822006AB943F2DB002D
:1021B00008606FF07041696044F82210002283F8D3
:1021C000492083F8482038BD43F2D20041F822006C
:1021D000EFE700BF681F002000E100E0541E002070
:1021E000F7B5464C0023042284F84930A260E3602E
:1021F00010222361A361E36123626362E3622363CC
:102200006363A36394F8493062614FF48052A26221
:1022100003F0FF06002B2ED1394B019684F848605D
:102220001A6B384D384942F480021A631B6BEE601A
:1022300003F480030193019B6E614FF000728023D1
:1022400085E80E004FF480632B6128464FF400535D
:10225000AB6185F83560EE612E626E62FEF7B0FD0F
:10226000012231463820E564AC63FEF7E7FA274BDC
:102270004FF080725A60A1682068254D50F82130D7
:10228000D4F810E0E268266B1D4063694EEA020252
:102290001343A2691343E2691343226A1343626A38
:1022A0001343A26A1343E26A1343626B334313433B
:1022B000626C1343A26B13432B43BEF1080F08BF9C
:1022C00043F0400300EB810740F821307B68114B5D
:1022D0007B60B6F5804F636804D153F8213000234A
:1022E0001B68FFDE6FF0704243F8212050F8213068
:1022F00043F0010340F8213003B0F0BD541E00202C
:1023000000380240681F00201064024000E100E035
:102310008000F0FF1102F0FF38B5044658B9074DB0
:102320004023AB6140F6B83000F000FD4FF480036D
:10233000AB61204638BD4FF0FF34FAE7001402408D
:1023400038B5174D174C242385F83930236A43F4E8
:1023500000332362236A23F4003323620420FEF750
:10236000ADFD0820FEF7AAFD0F48FEF743FA0F481F
:10237000FEF740FA0E4B4FF40032C3F880204FF4C2
:102380008032C3F880200023EB6385F8383085F86D
:10239000393085F83A30236B23F02003236338BDAE
:1023A0004815002000380240081F0020A81E002009
:1023B00000E100E0014BD86CFEF720B9541E00206C
:1023C00073B58C4C22681368D16813F00F055BD18C
:1023D000D80662D5C90660D5009513680093536886
:1023E0000093009B636B002B57D01A68A18D506837
:1023F000091A814889B201808048066893F835102F
:10240000022913D080225A6583F834500023E385D3
:1024100094F83A30232B0CBF2123202384F83A3040
:10242000774B1868FEF7A6FD02B070BD11689D6D70
:1024300021F016011160516921F080015161196C80
:1024400009B9996C19B1116821F00801116011687E
:1024500021F001011160116811F0010107D1D86D5F
:102460003F228240AA6083F83410012209E001680B
:10247000891B0529EFD920225A65002283F83420D0
:10248000032283F83520C1E71B0706D500230193FB
:102490001368019353680193019B1368D1685069D5
:1024A0001E0706D19D0667D5880665D5FEF7BCFDDB
:1024B000BAE710F0010002D111F4907F5CD0DA0786
:1024C00005D5CE0542BFE26B42F00102E2635D0733
:1024D00004D518B1E26B42F00202E2639A0704D518
:1024E00018B1E26B42F00402E2631E0704D518B192
:1024F000E26B42F00802E263E26B002A94D09D0690
:1025000003D5880601D5FEF78FFD23685D69E16B71
:10251000090702D415F040052AD0DA6822F4907237
:10252000DA605A6922F001025A61202284F83A20C6
:102530005A69520619D55A69606B22F040025A61F5
:1025400098B1304B036590F83530022B04D08023CE
:102550004365FDF789FF67E70523026880F835309A
:10256000136823F0010313605EE7FEF751FD5BE79C
:10257000FEF74EFDE56357E71E062BD50D0629D560
:1025800094F83930212B7FF44FAFA368B3F5805F07
:10259000236A1AD11988C1F308015160226992B9DE
:1025A00002332362E38C013B9BB2E384002B7FF474
:1025B0003BAF2368DA6822F08002DA60DA6842F022
:1025C0004002DA6030E70133EBE7591C21621B78E7
:1025D0005360E7E758067FF527AF4B067FF524AF3A
:1025E000D36823F04003D360202384F83930FEF70A
:1025F00009FD19E748150020FC15002000160020F1
:102600008815002069040008014B186BFDF7F6BF20
:1026100048150020014B586BFDF7F0BF481500200E
:102620000649074B4FF0805208680128FDD91A600F
:10263000BFF34F8FBFF36F8FF6E700BF98150020F1
:1026400004ED00E04FF0FF3070474FF0FF3070476F
:1026500010B580B9094B1C68FFF7E6F894F85430C0
:102660000020022B0ABF84F8540004460124FFF71F
:10267000D1F8204610BD0446EEE700BF8C150020BF
:10268000064A13681968064B19B94FF0FF321A60F1
:1026900070471268D268D2685268F8E79015002037
:1026A000641D0020F8B50F460446FFF7BDF83D68ED
:1026B0000E4A6B1C166811D00D48216803689942B8
:1026C000636801D09E420ED2F11A8D420BD99B1B3A
:1026D0002B443B6003682360136863600024FFF7AA
:1026E00099F82046F8BD0124F9E700BF6C160020D8
:1026F0003C160020114B1A68114B30B512B1012263
:102700001A6030BD1A600F4B1B68B3FA83F3DBB25B
:102710000D49C3F11F03142000FB03F28C1808328B
:1027200065686D6865600A44954204BF6A686260C6
:1027300000FB03135B68DA68044BE1E7081600202E
:102740007016002010160020981500208C1500200F
:10275000024A136801331360704700BF0816002057
:102760004168826803698A6082685160596888425A
:1027700008BF5A600022026118680138186070476B
:102780000A68531C30B50AD103695A684A609160DF
:102790008B605960036808610133036030BD00F14C
:1027A00008035C682568AA42EFD32346F9E743682B
:1027B0004B609A688A609A68516099600368086102
:1027C0000133036070470000F8B51B4B1B4E1D68BA
:1027D0000446306804300F46FFF7C2FF334640B965
:1027E0003168174EC96A32680120884022EA000227
:1027F0003260621C07D137B1196812480431BDE854
:10280000F840FFF7D4BF2C441A68A542546007D99A
:102810000D4A10681968BDE8F8400431FFF7B0BFF1
:102820000A4A106819680431FFF7AAFF084B1A68B2
:10283000944238BF1C60F8BD6C1600208C15002037
:102840001016002058160020941500209015002026
:10285000641D002038B5C368DC6804F118052846FB
:10286000FFF77EFF114B1B68E3B9251D2846FFF7D4
:1028700077FF0F49E26A08680123934003430B6026
:102880000C4B1420294600FB0230FFF790FF0A4B47
:10289000E26A1B68DB6A9A4283BF084B012018601A
:1028A000002038BD29460648EFE700BF0816002083
:1028B00010160020981500208C150020701600209E
:1028C000401600202DE9F0410446FEF7ADFF94F8D4
:1028D00045501E4E6DB204F124080127002D17DC6F
:1028E000FF2384F84530FEF795FFFEF79DFF94F82F
:1028F0004450164F6DB204F110064FF00108002D40
:1029000017DCFF2384F84430BDE8F041FEF782BFB6
:10291000A36C3BB12046FEF76FFC00B13760013D70
:102920006DB2DBE7636A002BDAD04046FFF792FF17
:10293000F3E72369002BE4D03046FFF78BFF08B1A3
:10294000C7F80080013D6DB2D9E700BF70160020C6
:102950002DE9F84F3C4B1B68002B48D13B4B1C68C2
:1029600001341C605CB93A4A3A4B1168186810602F
:10297000394A1960136801331360FFF781FE374D40
:10298000374F2B689C424FF0000B43D3DFF8C080D9
:10299000DFF8E090D8F800201268002A32D14FF01A
:1029A000FF322A6036E006F1040A5046FFF7D8FEEF
:1029B000B16A19B106F11800FFF7D2FEF06AD9F832
:1029C0000030012202FA00F11943264BC9F8001029
:1029D0004FF0140E51460EFB0030FFF7E8FE38684A
:1029E000F16AC26A914228BF4FF0010BD2E71E4A3A
:1029F0001368013313601D4A1368013313604FF0ED
:102A0000000B18E0D8F80020D268D66871688C42B4
:102A1000C9D229603A68134BD16A14224A439A58A2
:102A2000022A114A126828BF4FF0010B1AB90F4948
:102A30000A6801320A600E4A1268002A18BF4FF075
:102A4000010B5846BDE8F88F081600206C160020D0
:102A500090150020941500203C160020641D0020D5
:102A60008C15002098150020D01F00200016002093
:102A700070160020101600202DE9F843FEF7D4FE52
:102A80002A4B1A68013A1A601C682CB10024FEF720
:102A9000C1FE2046BDE8F883254B1B68002BF5D00E
:102AA000DFF8A490234FDFF8A480D9F80030E3B911
:102AB0000CB1FFF7E5FD204D2C6844B11F4E0127F6
:102AC000FFF746FF00B13760013CF9D12C601B4B8A
:102AD0001B68002BDAD01A4B4FF080521A60BFF3FC
:102AE0004F8FBFF36F8F0124D1E7D9F80C30DC682A
:102AF000261D04F11800FFF733FE3046FFF730FEC5
:102B0000E26A3968012505FA02F314200B4300FB41
:102B1000028031463B60FFF74AFE0A4BE26A1B68BF
:102B2000DB6A9A4224BF054B1D60BEE708160020F1
:102B30000416002010160020D01F00207016002060
:102B400004ED00E08C1500204016002098150020B0
:102B5000DFF8CC812DE9FF48C346D8F8002017687C
:102B6000002F72D0D2681468DFF8B891FFF7F0FD3B
:102B7000674BD9F800201E680193B242CA4666D955
:102B8000FFF7E0F80125C9F80060DFF89C91002DFF
:102B900040F09A80002F5CD0B44260D8FFF76CFF01
:102BA000DBF80030DB68DD68281DFFF7D9FDEB6935
:102BB000012B0BD1A9692346324621442846FFF751
:102BC000EDF818B12146284600F0DAFA6B6A28467B
:102BD00098470125002202A9D9F80000FEF7E4FB7E
:102BE0000028BAD0029B002B03DA05990498039BB6
:102BF0009847029B002BEDDB049C636913B1201DF9
:102C0000FFF7AEFD019B1E68DAF80030B34201D930
:102C1000FFF798F8029BCAF80060092BDAD805FA8A
:102C200003F313F4047F6AD113F0C70F4FD19B064F
:102C3000D0D594F82C30002BCCD1FFF789FD20465D
:102C400000F0D0FCFFF718FFC4E73C468CE70025F6
:102C500099E7304B1B681D68B5FA85F56D09D9F801
:102C60000070FEF7E1FD97F84420FF2A04BF002220
:102C700087F8442097F84520FF2A04BF002287F8F0
:102C80004520FEF7C7FDBA6B5AB9234A116807F110
:102C900024001831FFF78BFD9DB9A01B2946FFF7D3
:102CA00093FD3846FFF70EFEFFF7E6FE002890D1B1
:102CB0001A4A4FF080531360BFF34F8FBFF36F8FEB
:102CC00087E74FF0FF30E9E7FFF7D6FE81E7A1691C
:102CD000039B324619442046FFF760F800283FF472
:102CE00079AF636A20469847E369012B7FF472AF9E
:102CF000A36903992046194400F042FA6AE7039950
:102D0000A1613346324631442046FFF747F861E778
:102D10006C160020781600208C15002004ED00E0D1
:102D200074160020D41F0020A024002008B540B94C
:102D3000094B4FF080521A60BFF34F8FBFF36F8F74
:102D400008BDFFF705FD0021FFF73EFDFFF794FEEC
:102D50000028EDD008BD00BF04ED00E000F108033D
:102D600043604FF0FF32C360036100238260036061
:102D7000704700002DE9F74F044600F10C08FFF7FB
:102D8000E7FC2368244FDFF89890DFF898B00069DB
:102D90000B43236000254045236808D123EA05033F
:102DA0002360FFF769FE206803B0BDE8F08F90E86C
:102DB0000404560122F07F4103D4194204D1504645
:102DC000E9E731EA0306FAD1D20100D50D4343F019
:102DD0000243C6680360FFF7C3FC311D084601913A
:102DE000FFF7BEFCF06AD7F800E00199012202FA71
:102DF00000F343EA0E033B60142303FB00900092B0
:102E0000FFF7D5FCDBF80030F16ADB6A994282BF3C
:102E1000024B009A1A60D2E71016002070160020AC
:102E2000981500208C15002008B50B4B1968024638
:102E300011B90A4909681960094918680968024402
:102E40008A4206D900F090FA0C2303604FF0FF305D
:102E500008BD1A6008BD00BFCC1F0020B0240020B0
:102E600000F80120F0B40D4B0D4D5B1B0F469B107D
:102E700000249C4203DB4FF0FF30F0BC704755F854
:102E800024603168814207D1F368002BF3D03369A5
:102E900038461146F0BC18470134EAE7B40100088F
:102EA000A8010008F0B40D4B0D4D5B1B0F469B10A5
:102EB00000249C4203DB4FF0FF30F0BC704755F814
:102EC00024603168814206D1F368002BF3D0384684
:102ED0001146F0BC18470134EBE700BFB40100080D
:102EE000A80100087047000038B50F4C0F4B204672
:102EF000002540F8045B1D70FFF730FF0C4A0123EA
:102F0000237714600B4C0C4A84F84630E3630223A9
:102F1000236422602046FEF793F9084B84F8505052
:102F2000A5641C6038BD00BF2C240020F41F0020C5
:102F3000D81F00204C2400202A240020DC1F002061
:102F40002DE99F487E4E7F4D30684FF0FF320DF1E6
:102F50000E01FEF729FA0028F6D0BDF80E30032B3B
:102F6000F2D8DFE803F0024BA8C52C78002C3CD146
:102F700021464FF480627448734F00F033FA2146C3
:102F80000320724CFEF7C4F804F5C06AE068FFF74E
:102F9000CDFEA2882168032000F036FA4FF480624B
:102FA0003946032000F026FA0130EFD0DFF8C49153
:102FB00059F8048FB8F1000F0ED1A168384600F01F
:102FC00077FB78B11034A2450FD04FF480624146B0
:102FD000384600F007FAD9E74146384600F068FB6A
:102FE0000028E5D04FF0FF3300E00023584A0121CC
:102FF0001360584B1868FFF7BDFEA5E72B78012B2F
:1030000051D1554B554A1B8800933221544B55489A
:103010004D4CDFF864B1DFF864A100F0F7FA5148D5
:1030200000F03EFB4F490246032000F0EDF94FF05F
:10303000000847464FF48062E119032000F0DAF9F6
:10304000B0F1FF3F8146F5D00D21204600F012FB84
:1030500030B90A21204600F00DFB08B94F44E9E7DA
:10306000B8F1000F13D15946204600F021FBF8B10A
:103070000F225146032000F0C7F94FF4806200216F
:10308000204600F0AFF94FF001080027D2E736499B
:103090002D4800F00DFB58B102232B7000232C4A61
:1030A00002211360A5E7023B18BF4FF0FF33F6E79C
:1030B0004FF0FF33F3E72B78022B16D1224C20463A
:1030C00000F0EEFA21460246032000F09DF94FF48D
:1030D00080622146032000F08DF9431C01D00023BB
:1030E00023541B4B0421186083E74FF0FF30F8E7AF
:1030F0002B78022B1AD140F6B830FFF717FE0322C7
:103100001A49104600F080F94FF480620E490320FE
:1031100000F070F9013009D013490B4800F0C8FAEB
:1031200020B10D221249032000F06EF92B780BB16B
:1031300001232B70064B00221A60082159E700BFBB
:10314000DC1F0020F41F0020F81F00209400002046
:10315000F4000020D81F0020F61F00203C3E00088D
:10316000E01F0020F8230020603E0008733E0008A6
:10317000773E0008A03E0008583E0008633E000865
:103180001FB50B4A0346106860B10293094B0191C9
:103190001B680022009243B1074B1A682AB969469E
:1031A000FEF770F805B05DF804FB0022F7E700BFFA
:1031B000A0240020541600200816002073B502AD8C
:1031C000002325F8023D454C29460A222068FEF7D7
:1031D00059F80128014603D1414B1868FDF7C0FF9B
:1031E000012340494048ADF8063000F051FA3F4B0A
:1031F00020684FF4FA521A8029460A22FEF742F854
:10320000012804D1364B02211868FDF7A9FF0223DB
:1032100037493848ADF8063000F03AFA0A22294614
:103220002068FEF72FF8012804D12D4B04211868DF
:10323000FDF796FF03230A2229462068ADF80630E1
:10324000FEF720F8012804D1254B08211868FDF766
:1032500087FF294CFEF7E8FA25682E1D3046FFF758
:103260007FFA60B9E86A254B142141435B5833B9B2
:10327000234901220B68824023EA02030B60AB6AF8
:103280001BB105F11800FFF76BFA31461D4E1E48C1
:10329000FFF78DFAFEF7BEFA32682AB1FEF7C4FADC
:1032A000FFF7EEF9FEF7B6FA23689D4209D13368BD
:1032B0004BB1164B4FF080521A60BFF34F8FBFF3E4
:1032C0006F8F02B070BD124A0F49126809689142AF
:1032D00001D12360F5E7FFF70DFAF2E7DC1F0020CC
:1032E000D81F0020853E0008E01F0020F61F0020A8
:1032F000953E0008F81F00208C150020981500202E
:1033000010160020541600205816002004ED00E08E
:1033100004160020DFF834D0002103E00C4B5B588A
:10332000435004310B480C4B42189A42F6D30B4AD7
:1033300002E0002342F8043B094B9A42F9D3FDF71F
:1033400021F900F02BF8FEF77FFA70470000022009
:10335000943F0008000000205C0100205C01002078
:10336000B0240020FEE70000014B1868704700BF42
:10337000F800002008B5074B044613B10021AFF355
:103380000080054B1868836A03B19847204600F017
:1033900027F900BF000000005C3F000870B50D4E2B
:1033A0000D4CA41BA4100025A54209D10B4E0C4CBA
:1033B000FCF7EEFEA41BA4100025A54205D170BDAC
:1033C00056F8253098470135EEE756F825309847EE
:1033D0000135F2E7A8010008A8010008BC010008B7
:1033E000C001000802440346934200D1704703F82D
:1033F000011BF9E713460A4601460248006800F03F
:103400001FB800BFF800002013460A4601460248D4
:10341000006800F003B800BFF800002038B5074C82
:10342000054608461146002222601A46FFF71AFD9B
:10343000431C02D1236803B12B6038BDAC240020AB
:1034400038B5074C054608461146002222601A4648
:10345000FFF728FD431C02D1236803B12B6038BD60
:10346000AC24002038B50546002945D051F8043C6D
:103470000C1F002BB8BFE41800F0B0F81F4A136807
:10348000104633B9636014602846BDE8384000F048
:10349000A6B8A3420CD921686218934204BF1A68E7
:1034A0005B68636004BF521822600460ECE7134657
:1034B0005A680AB1A242FAD919685818A0420BD129
:1034C00020680144581882421960DDD110685268A2
:1034D0005A6001441960D7E702D90C232B60D3E767
:1034E000206821188A4204BF11685268626004BFD4
:1034F000091821605C60C7E738BD00BFA424002024
:1035000070B5CD1C25F0030508350C2D38BF0C25F2
:10351000002D064601DBA94203D90C2333600020AD
:1035200070BD00F05BF8234A1468214691B9224C23
:1035300023681BB9304600F041F820602946304628
:1035400000F03CF8431C26D10C233360304600F0D9
:1035500046F8E4E70B685B1B1AD40B2B0FD90B6002
:10356000CD50CC18304600F03AF804F10B00231D82
:1035700020F00700C31A1BD05A42E25070BD8C42A3
:103580000DBF63684B686360136018BF0C46E9E7C2
:103590000C464968CAE7C41C24F00304A04205D0C5
:1035A000211A304600F00AF80130CDD02560D9E765
:1035B00070BD00BFA4240020A824002038B5064C0C
:1035C0000023054608462360FFF72EFC431C02D16A
:1035D000236803B12B6038BDAC24002070477047CE
:1035E000FEE700BF024B01461868FFF73BBF00BF74
:1035F000F800002010B5431E0A44914200D110BDCE
:1036000011F8014B03F8014FF7E700000CB430B597
:10361000174B0C1E9DB01D6808DA8B232B604FF0F2
:10362000FF301DB0BDE8304002B070474FF4027368
:10363000ADF8143014BF04F1FF332346049307930D
:103640004FF6FF7302900690ADF81630209A21AB2A
:1036500002A92846019300F0A1F8431CBCBF8B23AC
:103660002B60002CDDD0029B00221A70D9E700BF2E
:10367000F8000020C9B2034610F8012B1AB191429C
:10368000F9D11846704700290CBF18460020704732
:10369000034611F8012B03F8012B002AF9D17047DA
:1036A000034613F8012B002AFBD1181A0138704782
:1036B000F0B5037833B1034618465E1C1B7833B966
:1036C0001846F0BD0B78002B18BF0020F0BD4D1E32
:1036D000441E15F8012F002AF3D014F8017F9742F9
:1036E0003346F6D0E8E72DE9F0478E689E428246E1
:1036F0000C469146984635D88A8912F4906F31D09D
:10370000256809696F1A6569022305EB450595FB74
:10371000F3F508F101033B449D4238BF1D465305B4
:1037200031D52946FFF7ECFE064650B90C23CAF8FE
:103730000030A38943F04003A3814FF0FF30BDE880
:10374000F0873A462169FFF755FFA38923F4906378
:1037500043F08003A381266165613E44ED1B266032
:10376000A5604646464528BF46463246494620683B
:1037700000F0EEFAA3689B1BA36023681E4426603A
:103780000020BDE8F0872A4600F0FCFA0646002833
:10379000E1D121695046FFF765FEC7E72DE9F04FFB
:1037A0009DB0804603938B891C060D4616460FD5A7
:1037B0000B696BB94021FFF7A3FE2860286128B987
:1037C0000C23C8F800304FF0FF30C5E040236B6198
:1037D0000023099320238DF8293030238DF82A30D7
:1037E0004FF0010B37463C4614F8013B002B3CD10F
:1037F000B7EB060A0BD05346324629464046FFF740
:1038000072FF013000F0A380099B534409933B7879
:10381000002B00F09C8000234FF0FF3204930793AD
:10382000059206938DF853301A930522217850485B
:1038300000F03EFA671C049BD8B9D90644BF202289
:103840008DF853201A0744BF2B228DF8532022787D
:103850002A2A16D0079A00210A20274601343B78ED
:10386000303B092B51D9C9B111E0252BC0D02746D7
:10387000B9E73F4A801A0BFA00F0184304903C461F
:10388000D3E7039A111D12680391002A01DB079206
:1038900004E0524243F00203079204933B782E2B3C
:1038A0000ED17B782A2B07F1010132D1039B1A1D1F
:1038B0001B680392002BB8BF4FF0FF33023705930C
:1038C0002C4C39780322204600F0F2F938B140231D
:1038D000001B03FA00F0049B03430493013739787B
:1038E00025488DF8281006227E1C00F0E1F90028FA
:1038F00035D0224BFBB9039B073323F00703083372
:103900000393099B4B4409936CE700FB02320121AE
:10391000A3E70023059318460A240F4601313A789D
:10392000303A092A03D9002BCAD00590C8E704FB16
:1039300000200123F1E703AB00932A46104B04A9B2
:103940004046AFF30080B0F1FF3F8146D9D1AB894B
:103950005B063FF538AF09981DB0BDE8F08F03ABAB
:1039600000932A46064B04A9404600F081F8EAE796
:10397000603F0008663F00086A3F00080000000042
:10398000E73600082DE9F04791461F468A680B6923
:10399000DDF820809342B8BF1346C9F8003091F893
:1039A000432006460C4612B10133C9F800302368A3
:1039B000990642BFD9F800300233C9F800302568B3
:1039C00015F0060507D104F1190AE368D9F80020BB
:1039D0009B1A9D4229DB94F843302268003318BFBC
:1039E000012392062ED404F1430239463046C047E3
:1039F000013021D02368E568D9F8002003F00603E0
:103A0000042B08BFAD1AA36822690CBF25EAE5752F
:103A100000259342C4BF9B1AED184FF000091A34D9
:103A20004D451BD10020BDE8F087012352463946A1
:103A30003046C047013003D14FF0FF30BDE8F0877A
:103A40000135C2E7E1185A1C302081F843002244B6
:103A500094F8451082F843100233C4E7012322464C
:103A600039463046C0470130E6D009F10109D7E7B1
:103A70002DE9F04317460A7E85B06E2A9846064621
:103A80000C460C9B01F1430E00F0BC801AD8632A4F
:103A90002ED00AD8002A00F0C880582A00F08A8068
:103AA00004F1420584F842202AE0642A01D0692A00
:103AB000F6D121681A6811F0800F23D0111D19600A
:103AC000136827E0732A00F0B48008D86F2A2AD040
:103AD000702AE5D10A6842F020020A6003E0752AE4
:103AE00021D0782ADCD1782284F845206E4964E020
:103AF0001A6801F14205111D1960136884F84230FB
:103B00000123A3E011F0400F02F104011960D7D0A6
:103B1000B2F90030002B03DA2D225B4284F84320F7
:103B200062490A2217E02068196810F0800F03D05C
:103B3000081D18600B6806E010F0400F01F104004A
:103B40001860F7D00B8859496F2A14BF0A2208223F
:103B5000002084F843006568A560002DC0F29C80B9
:103B6000206820F004002060002B3FD1002D40F0A1
:103B700095807546082A0BD12368DA0708D5236992
:103B800062689A42DEBF302305F8013C05F1FF353B
:103B9000AEEB05032361CDF800803B4603AA214626
:103BA0003046FFF7EFFE013055D14FF0FF3005B042
:103BB000BDE8F08381F845203C492268186812F07E
:103BC000800F00F104051D6001D0036802E0550676
:103BD000FBD50388D00744BF42F0200222601BB906
:103BE000226822F0200222601022B1E77546B3FB62
:103BF000F2F002FB1033CB5C05F8013D03460028D0
:103C0000F5D1B7E708681A68496910F0800F04D049
:103C1000101D18601368196007E010F0400F02F1E2
:103C2000040018601368F6D01980002323617546DC
:103C3000B1E71A68111D19601568626800212846ED
:103C400000F036F808B1401B606063682361002310
:103C500084F843309FE723692A4639463046C047F7
:103C60000130A2D023689B0707D5002504F119096C
:103C7000E368039A9B1A9D4205DBE068039B984228
:103C8000B8BF184693E701234A4639463046C04735
:103C900001308AD00135EBE7002BA7D10B7884F8EF
:103CA000423004F1420565E7823F0008713F000899
:103CB00001F0FF01102A2BDB10F0070F08D010F8DD
:103CC000013B013A8B422DD010F0070F42B3F6D1E1
:103CD000F0B441EA012141EA014122F007047FF0FA
:103CE00000070023F0E80256083C85EA010586EA51
:103CF000010685FA47F5A3FA87F586FA47F6A5FA8D
:103D000087F68EB9EED1F0BC01F0FF0102F0070298
:103D100032B110F8013B013A83EA010313B1F8D143
:103D20000020704701387047002D06BF3546033824
:103D3000073815F0010F07D1013015F4807F02BF5D
:103D4000013015F4C03F0130F0BC0138704700BFAE
:103D5000884210B501EB020303D8421E99420CD1F0
:103D600010BD9842F9D28118D21AD34200D110BDA9
:103D700013F8014D01F8014DF7E711F8014B02F876
:103D8000014FEBE7F8B5074614460E4621B9114638
:103D9000BDE8F840FFF7B4BB22B9FFF763FB254647
:103DA0002846F8BD00F014F884420FD92146384661
:103DB000FFF7A6FB05460028F2D031462246FFF762
:103DC00019FC31463846FFF74DFBE9E73546E7E792
:103DD00051F8040C0028A0F10400BCBF0B58C01817
:023DE00070472A
:043DE40000000000DB
:083DE80048C4FF7F0100000048
:103DF0000000000001020304000610160006101661
:103E00004E6574776F726B00546573740000000028
:103E10000000000000010203040607080948656C61
:103E20006C6F20576F726C640A0049444C45005413
:103E30006D725100546D72205376630041542B43D0
:103E4000495053544152543D22544350222C222570
:103E500073222C25640D0A00434F4E4E45435420D7
:103E60004F4B0041542B434950544D4F44453D3135
:103E70000D0A002B2B2B0041542B434950434C4F30
:103E800053450D0A003131382E3137382E31383252
:103E90002E3133350048656C6C6F20576F726C643F
:103EA0000D0A00002F3F00083A3F0008403F00087D
:103EB0004C3F0008513F00080000000000000000D7
:103EC000000000000000000000000000940000203E
:103ED0006000000041540D0A00415445300D0A00B5
:103EE00041542B4350494E3F0D0A004350494E3A2E
:103EF0002052454144590041542B434744434F4EBF
:103F0000543D312C224950222C22434D4E455422FF
:103F10000D0A0041542B43474154543D310D0A00D2
:103F200041542B43474143543D312C310D0A004E3F
:103F30004F2043415252494552004552524F520080
:103F40004E4F204449414C544F4E45004255535921
:103F5000004E4F20414E535745520000FC000020B8
:103F6000232D302B2000686C4C0065666745464762
:103F700000303132333435363738394142434445E5
:103F80004600303132333435363738396162636454
:033F900065660063
:103F940003000000A508000841230008D11F000801
:103FA400A1200008DF1D000819230008412F000884
:103FB400E92E0008003E0008000400000200000092
:103FC4007811002078010020BD310008E52E00089A
:103FD400083E0008C800000001000000F0140020A2
:103FE400D011002004000000E12100088121000814
:103FF400B51E00083D1F00084B2600084526000892
:1040040001000000411E0008231E0008EB1D0008EB
:10401400F11D0008E51D0008D91D00080024F40066
:10402400AAAAAAAAD43E000804000000603E000820
:10403400B80B0000D93E000806000000603E0008EE
:10404400B80B0000E03E00080A000000EB3E000848
:10405400B80B0000F73E00081B000000603E00089B
:10406400B80B0000133F00080C000000603E00087D
:10407400B80B0000203F00080E000000603E00085E
:10408400B80B0000FFFFFFFFFC0000200000000051
:10409400000000000000000000000000000000001C
:1040A400000000000000000000000000000000000C
:1040B40000000000000000000000000000000000FC
:1040C40000000000000000000000000000000000EC
:1040D40000000000000000000000000000000000DC
:0C40E400000000000000000000000000D0
:0400000508000231BC
:00000001FF
